:020000022000DC
:1060000000000420E545050025460500DD110300DC
:10601000294605002B4605002D460500000000001E
:1060200000000000000000000000000071440500B6
:10603000314605000000000091440500354605008A
:106040004148050037460500374605003D56030028
:106050003746050037460500351A05003746050066
:106060003746050037460500374605003746050028
:106070003746050037460500374605003746050018
:1060800037460500C1410500374605003746050083
:1060900037460500374605005D20040037460500F9
:1060A00037460500374605003746050037460500E8
:1060B00037460500374605000000000000000000DC
:1060C000374605003746050037460500294E0500CE
:1060D000374605003746050037460500A935040058
:1060E000374605003746050037460500000000002A
:1060F000000000003746050000000000A14E05002A
:10610000000000000000000000000000000000008F
:10611000000000000000000000000000000000007F
:10612000000000000000000000000000000000006F
:10613000000000000000000000000000000000005F
:10614000000000000000000000000000000000004F
:10615000000000000000000000000000000000003F
:10616000000000000000000000000000000000002F
:10617000000000000000000000000000000000001F
:10618000000000000000000000000000000000000F
:1061900000000000000000000000000000000000FF
:1061A00000000000000000000000000000000000EF
:1061B00000000000000000000000000000000000DF
:1061C00000000000000000000000000000000000CF
:1061D00000000000000000000000000000000000BF
:1061E00000000000000000000000000000000000AF
:1061F000000000000000000000000000000000009F
:10620000F1EE103A43F08073E1EE103A704700BFB0
:1062100010B5054C237833B9044B13B10448AFF3E0
:1062200000800123237010BD946400200000000052
:10623000CC6B060008B5034B1BB103490348AFF311
:10624000008008BD0000000098640020CC6B0600B0
:10625000154B002B08BF134B9D46A3F5803A002138
:106260008B460F461348144A121A34F07FFF0F4B27
:10627000002B00D098470E4B002B00D098470020F1
:10628000002104000D000D48002802D00C48AFF397
:10629000008034F001FF200029002EF0FBF934F0DB
:1062A000D5FE00BF00000800000004200000000030
:1062B0000000000094640020F400012000000000B1
:1062C0000000000033DF704712DF704700230381B6
:1062D000C36070472A2905D1044BD3F81005C0F3D9
:1062E0008020704708462FF017BB00BF0003005006
:1062F0002BF01EBE08B50A4BDB68D90106D5094B49
:106300001A68D20702D55868800908BD2DF054F8E4
:10631000054BA0FB0301830A43EA815008BD00BF7F
:10632000F0ED00E0001000E040420F003A483B4929
:1063300002680132F8B581FB0231D317C3EB610368
:1063400003EBC303D31A364D364E55F82320364C93
:106350000360B242226012D0344B9A420FD0344BC9
:106360009A420CD0334B344F344D9A4209D0BA4242
:1063700007D0AA4205D0324B9A4204D101E02E4FF9
:106380002E4D09F00DFA03F0B9F803F0C5F82368B3
:10639000BB4222D02A4A934229D02A4A934229D08A
:1063A000AB4211D0224A934227D0B34228D0214A8F
:1063B000934228D01D4A93422BD0234A934225D0A2
:1063C000BDE8F8400CF0FABE03F09AFA2368AB423D
:1063D000F6D1BDE8F8400CF053BC1C491C4A1D4BDB
:1063E0000978117500221A6005F086FDEEE706F0C7
:1063F00093F9EBE706F02CFEE8E704F00BFAE5E78B
:1064000004F0C8FFE2E707F023FDDFE707F0EEF94D
:10641000DCE703F003FFD9E724600020398EE3387E
:106420002860002048F805007C6800204CF8050032
:1064300058FB050050F8050058F8050060F8050005
:1064400068F8050070F8050074F80500D8680020A9
:10645000C8780020C8680020F8B51F491F4F204D9C
:106460000646204874462AF0B5FC1F491D482AF00C
:10647000B1FC102221461B482AF0E6FE1B491948B0
:106480002AF0A8FC396817482AF0A4FC18491548D6
:106490002AF0A0FC134831462AF06EFD002455F87E
:1064A000041F30462BF0D4FC40B90134092CF6D13E
:1064B000BDE8F8400F490B482AF0A4BD54B1013C97
:1064C0000D4A0E4B52F824203A601C60BDE8F8409B
:1064D000FFF72CBF0824F3E778F805007C6800205C
:1064E00024600020ACD000209CF80500A4F8050032
:1064F000B0F80500BCF805002860002024600020EA
:106500002DE9F04F2DED028BA349A5B004462BF0E9
:106510009FFC002873D1A149054620462BF098FC2A
:106520000646002861D19E4D9E4B2968994200F095
:1065300083809D4EB1426CD09C4B994269D09C4B5C
:10654000994200F0F3809B4EB14200F0F6809A4BE6
:10655000994200F01681994B99424BD120462BF07D
:1065600077FC002846D0964B96499B6894F82E20DD
:10657000CB5C9A423ED120460CF0EAF8002800F0AD
:10658000518291490B68002B00F09482236B0A68BA
:10659000501C834200F09282C2F10102D21806D44C
:1065A0008A4C8B4D206802440020226028600B60DA
:1065B000884B1B78042B00F03982874B186833F026
:1065C000D1FF864ACDE9000105A81E2135F0A0FCC7
:1065D000834BD3E9000134F0CDFA824A824B127822
:1065E00018611A7505F088FC04E06D4A6E4B12685C
:1065F0009A4227D025B0BDEC028BBDE8F08FE06950
:1066000034F007FD09F022FD25B0BDEC028BBDE89A
:10661000F08F2BF08DFC754A29681368744D013397
:10662000B1422860136075D072496F4A0968C2E9A7
:10663000421304F0AFFEDDE720462BF009FC60B901
:10664000296876E7E1696C48272235F021FD664B21
:1066500083F8DC5003F0E2FDCCE72046DFF8BCB164
:1066600008F018FB654905A82BF042FADBF800A0FA
:10667000BAF1000F48DD624D624FDFED638A0024FE
:106680004FF000084FF0000997ED0E8AB5EEC08A72
:10669000F1EE10FA25DDB4EEE88AF1EE10FA42468A
:1066A0004B46204629461CD534F026FA034618EE00
:1066B000100A33B933F056FF22462B4634F01CFA49
:1066C00078B118EE100A33F04DFF3B7B04460D46BF
:1066D000002B5FD007F10C0105A82BF0F5FADBF8D1
:1066E00000A00136564507F14007CDDB002200230C
:1066F0002046294634F014FA30B1444B444805A9E9
:10670000C3E900452BF098FA06F006F805A82BF02F
:106710008BFA6FE7E1693848272235F0B9FC324B34
:10672000002283F8DC2003F079FD63E720462BF09C
:106730008FFB002874D1296805E720462BF088FBE1
:1067400090B11F4B1F499B6894F82E20CB5C9A4256
:106750007FF450AF01F0A6FCA38CE26908210EF093
:1067600025F904F057F845E72968B1427FF4EFAE08
:10677000284920462BF06CFB002840F085802968D2
:10678000E5E6254920462BF063FB002840F0DF803A
:106790002968E0E639689FE7D8F80500DCF80500CD
:1067A0007C68002068F805004CF8050048F80500F2
:1067B00070F8050058FB050050F8050058F8050072
:1067C000B060002094600020C8680020E8680020C5
:1067D000B4680020547A0020287A002058F9050077
:1067E000E0680020D8680020C8780020B068002049
:1067F000F0680020F46800207D79002008F9050089
:106800000000F0BFF88500200050434718600020CA
:106810006C680020E4F80500F0F80500F887002017
:10682000B74BB8499B6894F82E20CB5C9A427FF412
:10683000E1AEA28DA16A032A40F2CD800B78502BE5
:1068400000F0D1800023501E76283FF6D3AED4B29C
:106850001944AD4D8DF816404FF4FF73002606A87D
:10686000ADF814308DF8176034F058FC0123AB7587
:106870006E752BF05DFBE86106F0EAFB211DC9B2E5
:1068800005A801F0BBF8B5E69D4B9E499B6894F8BE
:106890002E20CB5C9A427FF4ADAEE6692F213046C4
:1068A00035F099FB044600283FF4A4AE471C384657
:1068B0007E2135F090FB054600283FF49BAE8442D4
:1068C000BFF498AE304634F0A4FB0446384634F0AA
:1068D000A0FB01358046284635F0ADFBE4B2012C23
:1068E0008A4F064600F000812BF022FB3B6847F2FE
:1068F0003052C31A934200F2F780854C844835F039
:106900009AFB8319B3F5007FBFF674AE721C29465B
:10691000204434F003FC7F4A7F491378097801331F
:10692000DBB2994213707FF465AE01F0BBFB044605
:10693000774835F080FB764A83B2082120460EF076
:1069400035F87649764A00230B70137052E6754D80
:10695000754976486C4C2AF00FFA286803685B6E1C
:10696000984710EE100A33F0FDFD41EC100B0221A8
:106970006E482AF061FA6E496C482AF08DFA6D492A
:106980006A482AF0F9F9286803689B6E984710EE68
:10699000100A33F0E7FD41EC100B022163482AF0A6
:1069A0004BFA654961482AF077FA02220023C4E9CC
:1069B000082307F04DFA61495C482AF0DDF94FF4ED
:1069C0007A702BF0C1FA0123236207F041FA5C4888
:1069D00009F030FC0EE6002003460324A2427FF7B4
:1069E00009AE121A2FE74B78542B7FF42BAFCB78DC
:1069F0004F2B7FF427AF501E04284FF0040303DC15
:106A00000BE0A3B2834208DACD5C7E2D03F10104D2
:106A1000F7D1CD186D787E2DF3D102339BB2184695
:106A2000DC1CDBE7474802F049FDE3E5464F474CF5
:106A3000D7E900010022002334F054F8002843D0A5
:106A4000D4E900010022002334F04CF800283BD0A8
:106A50003F4D404ED5E90001D6E90023C7E90001CA
:106A6000C4E9002395ED002B94ED001B96ED003B4F
:106A700097ED000B12F0ECF855EC104B10EE100AED
:106A800000220023294634F055F800286CD0324EFD
:106A90002246D6E900012B4634F02EF808B1C6E9AB
:106AA00000452E4B1B68022B2D4B7FF792ADC3E99F
:106AB00000458EE5236B5A1E0A6068E5274A0B6085
:106AC00013680133136073E5224E214D254AD5E941
:106AD0000001D6E90089CDE90001CDE902891E2136
:106AE00005A835F015FABDE70B4B0A4A084C83F8A8
:106AF00000800023137023702BF01AFA3860FDE633
:106B0000B060002094600020C8780020B0660020AB
:106B1000B0640020B5660020B46600200B69002038
:106B20000A69002004880020F8F80500ACD0002095
:106B30000CF9050014F9050024F9050028F90500F1
:106B400050F9050074F90500B8680020C0680020FD
:106B5000307A0020407A0020D0680020B4680020FD
:106B6000E068002068F90500004B32E5E06800208D
:106B700030B5284B284A1A6087B002F0B1FC274B89
:106B800027481A68002410234FF6FF75CDE9003519
:106B90002146029402F0BCF922492246042002F068
:106BA000A5FC21492246072002F0A0FC01221F4932
:106BB000082002F09BFC204602F094FC08F08CFDBB
:106BC000012121202EF08AFE012123202EF086FEB5
:106BD00001210E202EF082FE21462A202EF0FAFD01
:106BE00021460B202EF0F6FD11481CF0F3F80DF1B4
:106BF0001700FFF769FB9DF8173033B94FF080435A
:106C00000122C3F8002507B030BDFFF75BFB07B0DA
:106C100030BD00BF7C680020EC22060064600020CC
:106C20009807060084F9050094F90500A8F9050005
:106C3000ACD000202DE9F043324CA7B02BF078F90E
:106C4000226841F28833801A984202D827B0BDE802
:106C5000F0832D4D2BF06CF92B682C4A206001330A
:106C600032210CA82B6035F053F9294B28689B681A
:106C700028490190284ACB5C00923221274A19A862
:106C800035F046F90CAB264A1E2104A835F040F930
:106C900019A809F0CFFA64202BF056F9214B1B7884
:106CA000042B17D0204B186833F05CFC1F4ACDE949
:106CB000000104A81E2135F02BF91D4A1D4B126856
:106CC0009A4217D004F066FE2BF032F9206027B00C
:106CD000BDE8F0831849194B194AD1E90089D3E975
:106CE000006704A8CDE90289CDE900671E2135F0CF
:106CF0000FF9E2E7134A144B12781A7505F0FCF805
:106D0000E2E700BFF0680020F4680020B4F9050055
:106D1000B060002094600020C8F90500BCF90500AF
:106D2000D0F90500547A0020287A002058F905008F
:106D30007C68002058F80500407A0020307A002056
:106D400068F90500D8680020C87800202DE9F04FC8
:106D50002DED048BCBB0054635F06DF9AE4B0D90A3
:106D60001B780A93502849D8042BAC4B26D09B683B
:106D7000AB4A00951EACD35CAA4A2046B02135F040
:106D8000C7F80EAE2B46A84A3046402135F0C0F871
:106D9000A64AA7482B46A02135F0BAF8A44800F02F
:106DA0003FFF204609F046FA64202BF0CDF803F0AF
:106DB00031FD4BB0BDEC048BBDE8F08F9D499E4882
:106DC000974A9B68D0E900ABD1E900890EAED35C4D
:106DD0000893304608F01CFC1EAC0E9A0492CDE9D4
:106DE00000ABCDE90289089B944A05952046B02165
:106DF00035F08EF830462AF017FFC3E7904B914AE2
:106E0000009500F14F07A3FB0737BF0904463B4637
:106E10004FF480718C48DFF80492DFF83CB235F013
:106E200077F8894800F0FCFE2A190B927A1EA246D8
:106E300008924FF000081EAC099730E0099FCDE999
:106E40000057774FFB5C35F063F8204635F0F3F8D8
:106E50000B9B3246A3EB0A01204434F05FF9204635
:106E600035F0E9F84AAB33441E180023204606F8F3
:106E7000B03C09F0DFF9B8F1040F744A2B464FF02B
:106E800020010EA8AAF1500A37D9089E464534D0F1
:106E9000C8202BF059F8089B9D42A84638DA0A9B77
:106EA0005646502EA8BF5026042B08F10105D9F8EC
:106EB00008304FF080015A462046BFD15E4A92ED1D
:106EC000008B5C4A92ED009B554A0EA8D35C0C9354
:106ED00008F09EFB0E9A099B019306928DED049B90
:106EE0008DED028B0C9B5A4A00958021204635F08F
:106EF0000FF80EA82AF098FEA7E7099E009635F035
:106F000007F80DF047FE534B187003F083FCBFE702
:106F1000099FAF4274DD0D9BDFF83CA109976FF02C
:106F20004F0606FB0536B0462CE0099FCDE9006709
:106F30003B4FFB5C34F0ECFF204635F07CF80B9BBC
:106F40005A46A3EB0801204434F0E8F8204635F017
:106F500072F84AAB18448344002320460BF8B03C37
:106F600009F068F9042D394A33464FF020010EA884
:106F7000A8F1500836DD089FAF4233D0099BB342D9
:106F800035463DDD0A9BB8F1500FC346A8BF4FF010
:106F9000500B042B05F10106D9F808304FF08001A1
:106FA00052462046C1D1244A92ED008B214A92EDEF
:106FB000009B1B4A0EA8D35C0C9308F029FB0E9A89
:106FC000099B019306928DED049B8DED028B0C9B2A
:106FD0001F4A00968021204634F09AFF0EA82AF01E
:106FE00023FEA9E7099D009534F092FF0DF0D2FD34
:106FF000184B187003F00EFC099BB3423546C1DCF8
:107000000DF0C8FD134B187003F004FC4BB0BDEC41
:10701000048BBDE8F08F00BF547A0020B0600020E0
:1070200094600020F4F90500D0F90500FCF9050092
:10703000C8660020407A0020307A0020DCF9050084
:10704000CDCCCCCC14FA05006867002054FA0500BA
:1070500028FA05000969002048FA050030B5214DDD
:107060008FB004462AF064FF2B6841F28832C31ABD
:10707000934200D8F4B11C4C2AF05AFF23681B4AF3
:1070800028600133322101A8236034F041FF01A8B8
:10709000FFF75CFE2AF04CFF154B164A1B68286070
:1070A000934214D0144A934206D0144A934206D015
:1070B00004F070FC0FB030BD03F0B0F8FAE7104AEE
:1070C000104B12781A7504F017FF0FB030BD0E4A3E
:1070D0000C4B21681268C3E9421204F05BF90FB04F
:1070E00030BD00BFF0680020F4680020B4F905004E
:1070F0007C68002048F805004CF8050058F80500A9
:10710000D8680020C8780020B06800202DE9F04F32
:107110002DED028BB54887B012F06AF8B44812F032
:1071200067F809F085FA07F00FFA0CF0CDFA2A207B
:107130002EF0F2FB68BB2AF0FBFEAE4B1A6841F260
:107140008833801A98422ED8AB4C2378E3B9AB4DE4
:10715000AB4A2B6893422AD0AA4A934262D0AA4AE9
:10716000934200F09B80A94A934228D0A84A9342B8
:107170002FD0A84A934278D0A74A934200F0888142
:10718000A64A934200F0A88007B0BDEC028BBDE890
:10719000F08F2A202EF0C0FB0128D5D12AF0C8FE9E
:1071A000944B1860D0E7FFF7E3FCCDE72B68964AD5
:1071B0009342D8D19A4A1278002AE5D0D3E70B201F
:1071C0002EF0AAFB0028DFD1964A974B12681A606E
:1071D000DAE70B202EF0A0FBB0FA80F405462AF087
:1071E000A7FE924B1A786409A24200F0F980904AF7
:1071F000904E1C701060904C904D2AF099FE2268C1
:1072000040F6B833801A984204D8326A95F90030B3
:107210009A42B9D006F01CFE2AF08AFE336A20603A
:107220002B70B1E70B202EF077FB002800F0CF8009
:10723000DFF83C827C4F7F4EDFF838920020FFF76A
:107240000DFF3B68D8F80020C6E942232AF070FE03
:10725000D9F80030C01AB0F5FA6F37D904F09AF8AF
:107260002AF066FEC9F8000030E00B202EF054FB37
:10727000B0FA80F504462AF05BFE6C4B1A786D0973
:10728000AA4200F0FB806A4A1D706D4D10602B7899
:10729000002B3FF479AFFFF7CDFC75E70DF07AFCDA
:1072A000002800F0EF805E4B664A1B781070002BC0
:1072B00000F02981644B19780F300211B1EB201FC7
:1072C000A4BF02F1FF321A7003F0E6FD2378002B11
:1072D0003FF46CAF2B6846E7DFF89CB15B4903A82D
:1072E0002AF006FC2AF024FEDBF800A00190BAF197
:1072F000000F40F33781564F564CDFED578A00267A
:107300004FF000084FF00009002594ED0E8AB5EE0D
:10731000C08AF1EE10FA26DDB4EEE88AF1EE10FA3A
:1073200042464B46304639461DD533F0E5FB034611
:1073300018EE100A33B933F015F932463B4633F0F4
:10734000DBFB80B118EE100A33F00CF9237B064604
:107350000F46002B00F0D28004F10C0103A82AF0A4
:10736000B3FCDBF800A00135554504F14004CCDB4B
:10737000002200233046394633F0D2FB374C40B16F
:10738000374803A9C4E900672AF056FC354B019A37
:107390001A60354D354E2AF0CBFD2B68C01A40F6E9
:1073A000B833984206D8D4E90001D6E9002333F077
:1073B00099FB40B905F0B0F92AF0BAFDD4E90023F1
:1073C000C6E90023286003A82AF02EFCDCE6154B52
:1073D000154FDFF89C801B683B60C8F800002AE767
:1073E000002D00F09380134E05E700BFA068002039
:1073F000F86800206868002054C500207C680020E0
:1074000070F8050048F8050058FB05004CF8050029
:1074100050F8050058F8050060F8050068F8050008
:107420000B690020EC680020B0680020086900208B
:107430009C680020C8780020BC6600200460002002
:10744000D8680020096900200A69002008F90500B1
:107450000000F0BFF885002000504347186000206E
:107460006C68002078680020C46600200860002056
:10747000F4680020B8660020F8870020002C56D061
:10748000394D04E7394E2B68336003F0C3F91DE72B
:107490000B202EF041FA98B30BF0AAFE344B1C7867
:1074A000BCB1344B3449354A91ED006A93ED007A12
:1074B000D2ED006ADFED325A76EEC66A37EE467AD2
:1074C000C6EE877A67EEA57AFDEEE77A17EE903A78
:1074D0001CB22C4D2C4E2AF02BFD2B68C01AB0F597
:1074E0007A7F04D8B6F90030A3423FF44DAE02F0E3
:1074F00007FA2AF01DFD3480286045E621682DE753
:107500000BF048F9C8E703F085F9DFE61F4A204B86
:1075100012681B68154E801A98427FF66CAE0123E4
:10752000336206F095FC1B4808F084FE63E6174AB8
:10753000174B12681B680C4D801A98427FF6A7AE55
:107540002B7815481549164A046083F001032B7007
:1075500014600C6001F0E0FF044B2A781A7504F007
:10756000CBFC94E60F4C14E7D8680020C8780020C4
:10757000A8C30020746000207C6000206C7B002089
:107580000000C842C0660020106000209C680020F7
:107590002060002050F90500C8680020E86800203D
:1075A000B46800201860002001F0B6BF10B51B4C75
:1075B000237883F00103237013B1194A1378A3B120
:1075C0000DF0E8FAE8B1174A237810700BB3144BAA
:1075D00019780F300211B1EB201FA4BF02F1FF3266
:1075E0001A70BDE8104003F057BC0E4B1B78012BFE
:1075F000E6D90F331B11013B13700DF0CBFA0028B5
:10760000E1D1094A094B12681A60BDE8104003F045
:1076100001B9BDE8104003F0FDB800BF0B690020C0
:107620000A690020096900207C680020C8780020D1
:1076300008B503782A2B0CD00B2B00D008BD1A4BB1
:107640001B78002BFAD00029F8D1BDE808400CF0D7
:1076500007BF79B9144B1B78A3B9144B14491868A8
:1076600034F0C6FC10B9134B1B787BB9BDE8084059
:10767000FEF75CBE03290DD00429DFD1BDE8084028
:107680000CF0D2BEBDE808400DF09EB8BDE8084041
:10769000FFF78CBF08480CF0AFFC08F081F8BDE89C
:1076A000084001F039BF00BF54C500207C680020AD
:1076B00058FB050009690020B0600020154B164AF0
:1076C0001968164B52F82120154910B5154C1A604F
:1076D00020462AF00DFA144A1449204633F072FC71
:1076E000002301222A211248124C11F0B5FC00237C
:1076F00001220B21104811F0AFFC104B104A114829
:1077000011491A610022C3E90540C3E900121A8138
:10771000DA6010BD24600020286000207C68002012
:1077200008F905006C68002000600020291C050095
:10773000A06800209001E803F8680020806800201D
:107740001400C800E803C800A0FA050038B50221FB
:107750002A202EF03FF802210B202EF03BF819488A
:1077600019491A4D044629F035FB2A202EF0D4F889
:10777000174A184B0146002914BF114619462046E6
:1077800029F040FC1449154A0B894A6043F036033E
:107790007D220B814A82E9601148002301220B21DE
:1077A00011F06CFC01E01BF035F920461BF00CF9E0
:1077B00003462046002BF6D12AF0BAFB094B18608D
:1077C00038BD00BFACD000207CFA0500A0680020C6
:1077D0005CFA050068FA0500806800203176020036
:1077E000F86800206868002000B52DED028B0220AB
:1077F00083B02DF091FF0C202DF088FF01202AF09E
:10780000A3FB274B18682DF0B7FF08EE100A0020E5
:107810002DF082FF0A202DF079FFB8EE488ADFEDC7
:10782000217AB4EEE78AF1EE10FA32D49FED1E7A97
:10783000DFED1E7AB4EEC78AF1EE10FA68EE277A11
:1078400014D49FED1B7ADFED1B6A77EEC77AB2EE98
:10785000047AA7EEA67AFCEEC77ACDED017A9DF800
:10786000040003B0BDEC028B5DF804FBDFED126A8F
:107870009FED127A77EEE67A67EE877AFCEEE77A8A
:10788000CDED017A9DF8040003B0BDEC028B5DF8EC
:1078900004FB002003B0BDEC028B5DF804FB00BFCD
:1078A0004C600020CDCC0C459A9919450080BB3F17
:1078B000000061459A99193E00404E458988083D6F
:1078C000F0B587B01C4968462AF012F9694603A84A
:1078D0002AF028F9194903A82AF06EFA83683BB9FF
:1078E00003A82AF0A1F968462AF09EF907B0F0BD76
:1078F000134E0368134A14484FF4827134F008FBA6
:107900003778124B7D1C1B7805F00705AB42E7D09A
:107910000D4834F090FBFF28E2D80D4B0A49441C77
:10792000224603EB072033F0F9FB0A4A0A4BD455F1
:10793000002235701A70D3E7B0FA0500B8FA0500D6
:107940000C690020C8FA0500287300200D6900208A
:10795000106900202073002050600020F0B587B02F
:107960001D4968462AF0C4F8694603A82AF0DAF8E7
:107970001A4903A82AF020FA83684BB903A82AF011
:1079800053F968462AF050F901F0C6FD07B0F0BD82
:10799000134E0368134A14484FF4827134F0B8FA56
:1079A0003778124B7D1C1B7805F00705AB42E5D0FC
:1079B0000D4834F040FBFF28E0D80D4B0A49441C29
:1079C000224603EB072033F0A9FB0A4A0A4BD455A1
:1079D000002235701A70D1E7B0FA0500DCFA050014
:1079E0000C690020C8FA0500287300200D690020EA
:1079F000106900202073002050600020C8B1F8B545
:107A00004BB2002B0C4600DCF8BD0A4F0A4B3E7807
:107A10001B78751C05F00305AB42F5D0074B0146FA
:107A2000224603EBC61033F079FB054B3D709C55A5
:107A3000F8BD70471D7100201E71002020710020CC
:107A400010710020F8B5836803B9F8BD114E0368C2
:107A5000114A12484FF4827134F05AFA3778104BB9
:107A60007D1C1B7805F00705AB42EED00B4834F0C7
:107A7000E2FAFF28E9D80B4B0849441C224603EBE5
:107A8000072033F04BFB084A084BD45500223570D1
:107A90001A70F8BD0C690020C8FA05002873002090
:107AA0000D69002010690020207300205060002024
:107AB0002DE9F04FDFF858A183B09AF8003000AFFD
:107AC000002B64D1DFF84CB19AF8003003F0FF06C8
:107AD000002B5CD1484D9BF800202B789A4256D061
:107AE000DFF820813446334604E00134082C08F5E1
:107AF000807849D09AF80020002A45D12A78A242FD
:107B0000F3D19BF80020013202F007029442E946CB
:107B10004146EAD07B60394BE65C06F1090202F48B
:107B2000FC72ADEB020D6846324633F0F7FA0DEB0E
:107B300006014FF07E000DF80600B21C4870304878
:107B4000694618F05FF906467B683220002E4DD159
:107B50002AF0FAF92B78294A9BF80010D6545A1CBF
:107B600002F007021B0227482A709142C65404F112
:107B7000010404BF01238AF80030082C4FF00103F0
:107B800008F58078CD46B5D11E46002E9CD11E4DFD
:107B9000DFF884902A7899F800309A4222D01B4C62
:107BA000DFF878A0DFF85880261D514614F8012B25
:107BB000404618F027F983460AF1800A1420BBF1E9
:107BC000000F0FD12AF0C0F999F8003004F801BC79
:107BD000013303F00303A64289F8003002D02A786B
:107BE0009A42E2D10C37BD46BDE8F08F1E46CD4625
:107BF000002E7FF469AFCAE70D69002020730020D2
:107C000044780020106900201D71002010710020B0
:107C1000506000200C6900201E710020207100209F
:107C20002DE9F04782B0E84602AF10B10278044671
:107C30001AB9C546BD46BDE8F08734F0FCF900F13D
:107C40000A0323F00703ADEB030D02AE0546214600
:107C500030462A4633F062FAAB1C71197E22DFF8F7
:107C600070A072554FF000094A70134806F803904F
:107C7000124A0096DE2134F04BF99AF80060104B5E
:107C8000741C1B7804F00704A342D2D00A4834F0D5
:107C9000D2F90C4B0849451C2A4603EB062033F069
:107CA0003DFA094A094B95558AF8004083F800903F
:107CB000C546BD46BDE8F0872C740020E8FA0500F3
:107CC0000D69002010690020207300205060002002
:107CD0000C6900202DE9F041B849B9481F46ADF5BF
:107CE000167D904629F076F8B54839460A2229F0E3
:107CF00065FA002F00F03F81444607EB0806404636
:107D000005E0012D01D90D290BD1B04242D010F868
:107D1000011B0A06F9D41F29A1F10905F1D97F2910
:107D2000F3D1032F04D998F80030FE2B00F08680A1
:107D3000A348A449A44FDFF80083054629F04AF878
:107D400007E029F079FA4146284629F043F8B44281
:107D500019D03946284629F03DF814F8011B0F299F
:107D60004FF010022846ECD8984929F033F814F85F
:107D7000011C1022284629F05FFA4146284629F0C6
:107D800029F8B442E5D18E4829F0D6F80DF5167DD4
:107D9000BDE8F08101AD8E49284629F0A9FE14F80E
:107DA000011B284629F0BAFFB442F8D1894984481A
:107DB00029F010F82946824829F0DEF83A212846B1
:107DC0002AF070F8431C044678D004A82346002209
:107DD00029462AF077F8AB68621C07A829462AF0E2
:107DE00071F87D49764828F0F5FF04A9744829F018
:107DF000C3F87A49724828F0EDFF07A9704829F0C6
:107E0000BBF8774904A82AF023F800284BD175491C
:107E100004A82AF01DF80446002875D00798FEF73C
:107E200095FF07A829F000FF04A829F0FDFE2846C9
:107E300029F0FAFE0DF5167DBDE8F08198F80150A5
:107E4000012D7FF475AF98F8034098F8023053EA9B
:107E500004249BD0E31C9F4298DD634B634E644A2D
:107E60009B68644FD35C644AFF21304634F050F87D
:107E7000304634F0E0F808F10401034622464FF0A2
:107E8000000830181C4433F049F97D7587F81680D6
:107E90002AF04EF8F86105F0DBF84246A1B2304610
:107EA00007F0FCFD72E707A90AA829F03BFE0AA823
:107EB000FEF7D2FA0AA829F0B7FEB2E74F492846E2
:107EC00029F0C6FF58B106F0D5FE4D4A03462021E1
:107ED0000AA834F01DF80AA8FFF7A2FEA7E749494F
:107EE000284629F0B5FF78B3474E484C0BF0ECFB21
:107EF0000FCE0FC496E8030044F8040B204600F8A8
:107F00001419FFF78DFE92E7414904A829F0A0FF5C
:107F1000F8B1079F384634F08EF801381E2830D863
:107F20003C4E39461F22304634F0B2F83046F477E2
:107F300000F044FB384A33460AA8302133F0E8FF0A
:107F40000AA8FFF76DFE6CE734491D4829F05AF87E
:107F50006DE7334904A829F07BFFB0B1079800F022
:107F6000A9FA304A034630210AA833F0D1FF0AA803
:107F7000FFF756FE55E701AD1549284629F0B8FD33
:107F800014E72948FFF74CFE4BE7284904A829F0DD
:107F90005FFF002852D026484FF4007100F01AFA13
:107FA000002856D0224B234A0AA84FF40C7133F014
:107FB000AFFF0AA8FFF734FE33E700BF00FB050060
:107FC000ACD000204CFC0500DC210600A8410600D6
:107FD00008F9050024FB050038FB050044FB0500FB
:107FE0004CFB050054FB0500B06000200C75002020
:107FF00094600020C878002044FC0500ECFB0500DC
:10800000F8FB0500C8FB0500D4FB05000C7600203A
:108010005CFB05002478002064FB05001CFC0500C7
:1080200084FB050090FB050070FB0500A0FB05002C
:1080300024760020ACFB050058090600124904A86C
:1080400029F006FF48B10BF03FFB1048FFF7E8FDB1
:10805000E7E60F48FFF7E4FDE3E60E4904A829F040
:10806000F7FE58B106F006FE0B4A034620210AA887
:1080700033F04EFF0AA8FFF7D3FDD2E607490848C0
:1080800028F0C0FFCDE600BFC8FB0500D4FB05000B
:10809000BCFB0500ECFB0500F8FB05000CFC050033
:1080A000ACD0002008B5074803780BB1054808BDDF
:1080B0004FF08053044A1B6E092133F029FF014819
:1080C00008BD00BF1471002064FC050030B500221B
:1080D00089B001213E483F4C19F06EFD04213C4817
:1080E00019F028FF4FF080533B4A1B6E01A819215D
:1080F00033F00EFF364801A919F0F4FE01E01AF042
:1081000089FC20461AF060FC03462046002BF6D17D
:108110000A2029F019FF31482E4C19F027FA30486F
:108120001A2117F055FE112211462D4817F056FE60
:108130002B48FD2117F050FE2A492948012217F04B
:1081400053FE01E01AF066FC20461AF03DFC03469F
:108150002046002BF6D10A2029F0F6FE20481D4DBE
:1081600017F04CFB20491A4818F024FB1F49184807
:1081700018F022FB19491E4817F0FAF81C4817F0AE
:108180000DF901E01AF046FC28461AF01DFC0446E1
:108190002846002CF6D10A2029F0D6FE21461448A4
:1081A0000C4C17F0ADF901E01AF034FC20461AF03F
:1081B0000BFC03462046002BF6D10E49054828F05B
:1081C00009FE01A9034828F01DFF09B030BD00BF1A
:1081D0002CC80020ACD000206CFC05009C7800204E
:1081E00044780020D57C02005D790200C17802004D
:1081F0006CCE002080FC050010B5044B044640F80E
:10820000083B19F0EFF9204610BD00BF243D0600E1
:1082100030B5124D1249134C85B0684619F0F8F983
:108220006946284619F0BEF9684619F0DBF90E4A8E
:108230000E49284632F0C6FE0D49684619F0E8F9A5
:108240006946204617F08EFD684619F0CBF9064ABC
:108250000849204632F0B6FE05B030BD9C780020BB
:10826000A4FC05004478002000600020F981020091
:10827000ACFC0500C9F703005C30002914BFFF21E6
:10828000002141F2883232F071BF00BF2DE9F84F72
:108290004C4C2778054688469FB34B4B1E6876B3F7
:1082A0006DB3B8F1000F2AD0404633F0C4FE30B3AE
:1082B0000F2824D8284633F0BEFE0138C0B2062865
:1082C0001DD896F804A0BAF1000F39D006F10509BF
:1082D000CB46002703E057450BF1200B2ED0294653
:1082E0000BF1100033F084FE013704460028F2D170
:1082F00041460F22584633F0CBFE8BF80F40BDE8C5
:10830000F88F324EDFF8C8A03368DFF8BC905345D1
:10831000C9F8006002D101232370C1E7304640F262
:108320000522394632F022FF3771C6F800A0D9F88D
:10833000006001232370002EB2D1E0E70F2F1AD87E
:108340004FEA4A100530331800220AF1010A86F874
:1083500004A0414632505A609A60DA601A615A614C
:1083600018460F2233F094FE29461030BDE8F84F2E
:10837000072233F08DBE013F3771012206EB421315
:1083800009F12009D3F80500D3F80940D3F80D709E
:10839000D3F811C049F814CC49F8200C49F81C4C0A
:1083A00049F8187CD3F81500D3F8194049F80C4C5B
:1083B00049F8100C96F804A0924502F10102DDDCA8
:1083C000BEE700BFB8780020B4780020007C002011
:1083D000594C44422DE9F04F314C257885B0804608
:1083E0008946002D40D02F4B03931E68002E37D0B6
:1083F000B8F1000F34D0002588F8005096F804E05A
:10840000BEF1000F25D0DFF8A8A02C466B01053384
:10841000A9EB040716F803C0334408EB04005246E6
:108420003946013503F1100BBCF1000F0FD0CDF828
:1084300000B033F06DFD002883B2184610DB9F4278
:108440000EDD039B1E68204496F804E084B2AE451E
:10845000DCDCBEF1000018BF012005B0BDE8F08FE4
:10846000002005B0BDE8F08F0E4A0F4B0F4F03926E
:1084700011461A680B60BA4203D101221E462270CF
:10848000B6E740F205221846294632F06FFE057124
:10849000039A1668076001232370002EA8D1DFE736
:1084A000B8780020B4780020007C0020594C444269
:1084B000B4FC05002DE9F0413C4D86B0044600288F
:1084C00053D02B78002B50D02578002D57D0002684
:1084D000374609E020462C2133F07DFD00284FD09F
:1084E0004578441C002D4BD0204633F0A4FD0528D0
:1084F00046D9432DEED163784E2BEBD17C2120461B
:1085000033F069FD05460028E4D04378442BE1D1DF
:10851000031BDBB2DA1E0E2ADCD8023B5FFA83F8BB
:108520004246A11C02A833F0B3FD06AB9844681C78
:108530002C2108F8107C33F04EFD023580B3401B2F
:108540005FFA80F808F1FF33062BC3D8424629466C
:10855000684633F09DFD06AB9844684602A908F8CA
:10856000187C0136FFF792FEB4E7114A114B124E08
:1085700013601A68B24207D101232B70A4E72E467C
:10858000304606B0BDE8F08140F2052218460021D1
:1085900032F0ECFD00220123066002712B7093E79C
:1085A000284633F048FD5FFA80F8CBE7B878002022
:1085B000B4780020007C0020594C44422DE9F84F4B
:1085C000494E3778054667B3484B1C683CB335B312
:1085D000284633F030FD10B30F2820D894F804A0BB
:1085E000BAF1000F64D0671DDFF808B1B8464FF04C
:1085F000000903E0CA4508F120082FD0594608F1C8
:10860000100033F0F5FC09F1010906460028F1D10C
:1086100029460F22404633F03BFD88F80F60BDE845
:10862000F88F334CDFF8D0902368DFF8C0804B45DB
:10863000C8F8004002D101233370C8E7204640F259
:108640000522394632F092FD2771C4F80090D8F81F
:10865000004001233370002CB9D1E0E7BAF10F0FCD
:1086600026D90AF1FF3A84F804A03B46012104EB25
:1086700041122033D2F80560D2F80970D2F80DC04B
:10868000D2F811E043F814EC43F8206C43F81C7C5A
:1086900043F818CCD2F81560D2F8197043F80C7C66
:1086A00043F8106C94F804A08A4501F10101DEDC66
:1086B0004FEA4A100530231800220AF1010A84F813
:1086C00004A0294622505A609A60DA601A615A6101
:1086D00018460F2233F0DCFCBDE8F84F0549103096
:1086E000072233F0D5BC00BFB8780020B478002052
:1086F000007C0020C0FC0500594C44422DE9F041AB
:10870000174D2E78A6B1174B1C68237933B1164943
:1087100004F1150033F06CFC631D10B11348BDE883
:10872000F08162791148002A18BF1846BDE8F0812F
:108730000F4CDFF8408023680A4F43453C6002D16C
:1087400001232B70E1E7204640F20522314632F04A
:108750000DFD26710123C4F800803C682B70D4E71E
:10876000B8780020B4780020C0FC050008F90500A6
:10877000007C0020594C444200207047704700BFE5
:10878000F8B50C1E60DB17461E4605460DF0A4FF2B
:10879000A04259DD002F57DB28460DF0A1FFB8425B
:1087A00052DD41F2E633EB5C002B56D1A4B22846F1
:1087B0000DF07EFF022863D003285BD0012853D040
:1087C000BBB2214641F2F23241F2E730AA5A285CAC
:1087D0008A1A12B241F2F431002836D16F5ADF1BE7
:1087E000BBB23FB2002A2FDB41F2F631685E695A14
:1087F000824229DA002F27DB41F2F830285EB842A6
:1088000022DD41F2F03041F2EC34285A2C5B14FBAB
:1088100000F41B1B1CB2002C9BB215DB00B284427F
:1088200012DAC90811FB03F303EBE2039BB21D4408
:108830007EB302F0070295F85C10C2F10702012333
:1088400093400B4385F85C30F8BD6F89695A7F1AF5
:10885000013FFF1ABBB23FB2C4E728460DF03CFF10
:10886000E14301448CB2A2E72989FA430A44234632
:1088700091B2A7E76B89013B1C1BB9B2A3B2A1E778
:1088800029896B89FF4301391F44091BBBB289B297
:1088900098E702F00703C3F1070395F85C20012174
:1088A00001FA03F322EA030385F85C30F8BD00BF48
:1088B0002DE9F04F9E499F489F4DDFF8ACB2B3B011
:1088C00028F0A0FB01212B202CF084FF01212B207C
:1088D0002DF004F801212B202DF000F89749954840
:1088E00028F090FB14202BF015FF1D2394490093D2
:1088F00026221F2304460CF0D3FB032300931C22E3
:108900002C6002231E2114A80EF0FEFBDDE91D01E0
:10891000BDF964200792189A179B1A9DBDF86CC088
:108920000E922CAE1C9A0D9386E80300219B0895AD
:10893000CDF818C0209D9DF87FC0099241F2FC300F
:10894000229A9DF87CA09DF87D909DF87E80CDF8C0
:1089500028C0DDE915470B930C920F952BF0DAFE3A
:10896000C822054611460DF0E5F9B5F90A20DFF8F1
:10897000FCC16C6296E803008CFB02C4D617C6EB00
:10898000A4140D9EEE620E9E2E63079EAE86089E78
:10899000AE630023069EAE876AF30703099E2E642A
:1089A00069F30F230A9EAF6268F3174366F31F63F0
:1089B000644E2E6005F1440C0F9E8CE803002E657A
:1089C0000B9E6E654FF0C80A0C9EAE650AFB14271D
:1089D00041F2EE36DFF898C1C5F820C0002FD4BFB1
:1089E0002746671C41F2E63EEB6441F2F039AF5393
:1089F00041F2F43841F2F83600244FF44803AA5308
:108A000025F80E4041F2EC3245F809A045F808304F
:108A100041F2E4334C49EC544648AC52CBF8005098
:108A200028F0F0FA494B23934FF48073ADF890305F
:108A3000414BDBF800501968454F23AB05F120008E
:108A40000CCB06900EF08CF80698009421464FF45B
:108A5000967301220EF0E0F841F2F23941F2EC3265
:108A600041F2F63841F2E4316B8932486C54AC5231
:108A70003849AB5345F8094025F808A028F0C2FA58
:108A8000504629F061FA34492A4828F0BBFADBF84D
:108A90000000036803211B6B98473049254828F0E4
:108AA000B1FADBF80000FF2120300EF043FF2C4923
:108AB000204828F0A7FADBF800502B686A895B6C25
:108AC00041F2E431BB426C5445F8094025F808A056
:108AD000AA5340F0038241F28832FF2105F15C0085
:108AE00032F044FB284600210DF0DAFD1D49DBF889
:108AF00000000DF0DFFDDBF8006035686B6CBB42F9
:108B000040F0F38141F28832FF2106F15C0032F03F
:108B10002DFB344641F2EC320023B35241F2E532F0
:108B2000DFF85080B3546B6CBB4240F0088123E007
:108B3000C8FC0500ACD00020BC780020ECFC05008F
:108B4000003002405CFE050004FD050000093D0008
:108B50007982020038FD050058FD050078FD05000A
:108B6000A4FD05002CFF0500C07800201F85EB51F7
:108B700014380600C8FD050041F28832FF2104F1D7
:108B80005C0032F0F3FA204628220A210DF084FD21
:108B9000DBF80000414628F01DF941F2EE3ADBF81F
:108BA000004034F80A00012800F0D08041F2EC3592
:108BB00041F2F033665FE15A41F2E432B3B2A25CB3
:108BC00013FB01FE1FFA8EFE002A73D0421E12B262
:108BD000964241F2F43941F2F836B8BF714434F8A4
:108BE00009C0A8BF6189A25BB8BF89B26144624471
:108BF00089B292B29142E6441FFA8EFE28BF114616
:108C00008E451ED241F2E533A1EB0E01E35C41F249
:108C1000F23209B2002B40F02E81A25E0191CDE923
:108C2000033341F2F6300293235E009304F12000F7
:108C30000FFA8EF304F15C010EF06CFC34F80A00BC
:108C4000635B01331BB200B28342635340F0E080A8
:108C500041F2E53A002214F80A306253002B00F08A
:108C60002381A649A64828F0CDF9DBF800000021B1
:108C7000203006900FF09CFB06980EF0FDF9A149FC
:108C80009F4828F0BFF9A04911A828F031FF11A989
:108C900023A828F047FF9D4923A829F08DF8FEF767
:108CA000D1FE23A828F0C0FF11A828F0BDFF33B0E3
:108CB000BDE8F08F41F2E536A35D002B40F08C80DB
:108CC000CDE9033302936289A2EB0E0292B2914284
:108CD00028BF114609B24FF0C80C04F15C0904F139
:108CE00020001A4601910FFA8EF34946CDF800C0D4
:108CF00006900EF029FC0698635B34F90A200133D4
:108D00001BB29A4263535ED1A15D002363530029D5
:108D100040F0C7800FF04CFB23685B6C0122BB4224
:108D2000A25554D1484641F28832FF2132F01EFA52
:108D3000DBF8004025686B6CBB423FF41DAF20465A
:108D40004FF6FF719847DBF800401CE741F2E4332F
:108D5000E55C002D68D041F2F43941F2F23800258B
:108D600034F9093034F908200295CDE9035541F270
:108D7000F83741F2F636E15F0191A15F009104F10D
:108D80005C0A04F12000514606900EF0C3FB34F952
:108D900007C0A35F34F9092034F908100698CDF80C
:108DA00000C00FF079FA34F9093034F9082002953F
:108DB000CDE90355E15F0191A15F0091069851460D
:108DC0000EF0C2FB4DE723685B6CBB42AAD0204685
:108DD0004FF6FF719847ABE7CDE903220292638912
:108DE000A3EB0E039BB2994228BF194609B24FF07C
:108DF000C80C04F15C0904F1200001910FFA8EF314
:108E00004946CDF800C006900EF09EFB069873E729
:108E100023685B6CBB42DAD104F15C0041F288321A
:108E2000FF2132F0A3F983E7CDE903550295B4F9A8
:108E30000A30019304F15C06C82704F120002B4698
:108E40002A463146009706900EF07EFB069829468A
:108E50000FF0AEFACDE903550295B4F90A30069841
:108E6000CDE9007331462B462A460EF06DFB06987D
:108E70000EF002F9F5E60023A25E0191CDE903337D
:108E800041F2F6300293235E009304F120000FFAC2
:108E90008EF304F15C010EF057FB34F80A00635BBB
:108EA000CFE60EF0E9F8DCE641F2F63341F2F231BA
:108EB000A05F34F90920E35E615E009004F12000B8
:108EC0000FF0EAF923685B6C0122BB4204F80A2028
:108ED000A2D020464FF6FF71984729E728464FF663
:108EE000FF719847DBF80050FCE54FF6FF71304604
:108EF0009847DBF8004025680CE600BFD8FD050068
:108F0000ACD00020F8FD0500B0FA05002CFE0500ED
:108F10002DE9F04F89B0DFF8888004AFD8F800C0A1
:108F2000BD6BDCF800E0BC8F01941E460FFA85F99A
:108F3000760009B212B2CDF800901BB20736C7E92D
:108F40000132F96026F00706DEF840B0B7F840A01D
:108F500004466046D847ADEB060D002DD7E9022147
:108F60007B6804AE0FDD023C04EB4505A6F1020C64
:108F700034F8020F5FFA80FE000A40EA0E20AC428D
:108F80002CF8020FF4D10093CDE9019AD8F8000033
:108F900033460DF0B7F81437BD46BDE8F08F00BF7B
:108FA000C07800202DE9F047C04B86B0984204AF4E
:108FB00000F0D280BE4B197800295ED1BD4B98429B
:108FC00000F09380BC4B984200F0FF80BB4B98426E
:108FD00000F03381BA4B984200F08E81B94B984231
:108FE00000F02482B84B984200F0DF81B74AB84BBA
:108FF000B84CD2F80090B84A9842B84B20681E6826
:10900000B2F9002003680FFA89F54FF6FF7CCDE92D
:10901000005C0FFA86F8D3F840A07A60434600F06F
:10902000A381D0477300073323F007036E46B9F1DD
:10903000000FADEB030D7A6804AB11DD03EB4909BA
:10904000DFF89CC2A9F10209981E3CF8021B5FFAE6
:1090500081FE090A41EA0E2120F8021F4845F4D199
:10906000002120680195CDF8008002910DF04AF8AA
:10907000B5460837BD46BDE8F087944A954CD2F80E
:1090800000902068954B944A1E68B2F9002003684E
:109090004FF6FF710FFA89F5CDE900510FFA86F806
:1090A000D3F840A07A6043460021D04773000733CD
:1090B00023F007036E46B9F1000FADEB030D7A689C
:1090C00004ABCDDD03EB490CDFF818E2ACF1020C88
:1090D000981E3EF8021B5FFA81F9090A41EA09214C
:1090E00020F8021F6045F4D1BAE7784A794CD2F8EB
:1090F00000902068794B784A1E68B2F90020036816
:109100004FF6FF7C0FFA89F5CDE9005C0FFA86F87F
:10911000D3F840A07A604346D0477300073323F06A
:1091200007036E46B9F1000FADEB030D7A6804AB8F
:1091300096DD03EB4909DFF8B0C1A9F10209981ED9
:109140003CF8021B5FFA81FE090A41EA0E2120F871
:10915000021F4845F4D183E75C4A5E4CD2F8009088
:1091600020685E4B5C4A1E68B2F9002003684FF627
:10917000FF710FFA89F5CDE900510FFA86F8D3F89F
:1091800040A07A6043460021D0477300073323F0A4
:1091900007036E46B9F1000FADEB030D7A6804AB1F
:1091A0007FF75EAF03EB4909DFF840C1A9F102097F
:1091B000981E3CF8021B5FFA81FE090A41EA0E2163
:1091C00020F8021F4845F4D14AE7404A414CD2F802
:1091D00000902068414B404A1E68B2F900200368A5
:1091E0004FF6FF7C0FFA89F5CDE9005C0FFA86F89F
:1091F000D3F840A07A604346D0477300073323F08A
:1092000007036E46B9F1000FADEB030D7A6804ABAE
:109210007FF726AF03EB4909DFF8D4C0A9F10209B3
:10922000981E3CF8021B5FFA81FE090A41EA0E21F2
:1092300020F8021F4845F4D112E7244A254CD2F801
:1092400000902068254B244A1E68B2F9002003686C
:109250004FF6FF7C0FFA89F5CDE9005C0FFA86F82E
:10926000D3F840A07A604346D0477300073323F019
:1092700007036E46B9F1000FADEB030D7A6804AB3E
:109280007FF7EEAE03EB4909DFF868C0A9F10209E8
:10929000981E3CF8021B5FFA81FE090A41EA0E2182
:1092A00020F8021F4845F4D1DAE600BFEC220600A0
:1092B00054C5002070F8050058FB05004CF8050067
:1092C00048F8050058F8050050F805005C600020DB
:1092D00068F80500C0780020646000205860002015
:1092E000ACFE05000CFF05001806060098070600F6
:1092F0005806060038060600684A694CD2F8009005
:109300002068684B684A1E68B2F9002003684FF66F
:10931000FF7C0FFA89F5CDE9005C0FFA86F8D3F8E7
:1093200040A07A604346D0477300073323F0070319
:109330006E46B9F1000FADEB030D7A6804AB7FF711
:109340008FAE03EB4909DFF864C1A9F10209981E49
:109350003CF8021B5FFA81FE090A41EA0E2120F85F
:10936000021F4845F4D17BE6D0477300073323F052
:1093700007036E46B9F1000FADEB030D7A6804AB3D
:109380007FF76EAE03EB4909DFF824C1A9F10209AA
:10939000981E3CF8021B5FFA81FE090A41EA0E2181
:1093A00020F8021F4845F4D15AE63C4A3C4CD2F81A
:1093B000009020683B4B3C4AD3F80080B2F9002073
:1093C00003684FF6FF750FFA89F6CDE900650FFACD
:1093D00088F5D3F840A07A602B46D0474FEA48037F
:1093E000073323F00703E846B9F1000FADEB030D97
:1093F0007A6804AB11DD03EB4909DFF8B8C0A9F1C5
:109400000209981E3CF8021B5FFA81FE090A41EA34
:109410000E2120F8021F4845F4D100212068019652
:10942000009502910CF06EFEC54622E61B4A1C4CCC
:10943000D2F8009020681B4B1B4A1E68B2F900202E
:1094400003684FF6FF7C0FFA89F5CDE9005C0FFA4F
:1094500086F8D3F840A07A604346D04773000733BC
:1094600023F007036E46B9F1000FADEB030D7A68E8
:1094700004AB7FF7F5AD03EB4909DFF83CC0A9F178
:109480000209981E3CF8021B5FFA81FE090A41EAB4
:109490000E2120F8021F4845F4D1E1E55C60002070
:1094A000C078002058600020646000209806060004
:1094B000ECFE050078060600CCFE050038B5064D2A
:1094C00006490446284627F085FC21462846BDE883
:1094D000384027F097BD00BFACD0002040FE05000B
:1094E000704700BF01462B202CF0F8B9704700BF31
:1094F000704700BF704700BF704700BF014B01229B
:109500001A70704751600020024B187808B1002291
:109510001A7070475160002002F03CBA2DE9F04704
:10952000274C284E82B088460546FFF73BFD206851
:1095300025490DF0BFF82068B6F900200368002720
:109540004FF01009CDE900971821D3F840A064230B
:10955000D047326820680B3212B21C210DF09CF803
:1095600020684FF6FF710DF09BF82946206827F020
:1095700031FC2068154BB6F900201D680368CDE961
:109580000097A5F15A01D3F8409009B25623C84775
:1095900032682068563D0B3212B229B20DF07CF8C9
:1095A00020684FF6FF710DF07BF84146206827F0E8
:1095B00011FC2068394602B0BDE8F0470DF070B8E4
:1095C000C078002064600020080A0600686000205F
:1095D000F0B54A4C4A4D20682A680368494E8DB060
:1095E00000212027CDE90071203A1F6CB6F9003028
:1095F00012B2B847444B2F68186830F0B3FFA7F198
:109600000C05CDE90001414A0C2109A832F080FC8B
:109610002DB220683E490DF04DF82A4620680421FD
:109620000DF03AF820684FF6FF710DF039F809A9EE
:10963000206827F0CFFB374904A80DF013F99DF8F7
:109640001530354A009309219DF8143006A832F0F0
:109650005FFC06A832F0EFFC33680146A3EBC101C2
:1096600001EBD1712A46206841F34F010DF014F847
:1096700006A9206827F0AEFB20682A4698210DF045
:109680000BF8264B206819680A2227F041FEFEF7E6
:10969000ABF85A2803D850281DD9214800E02148AA
:1096A000214A2249336812680968DFF898C000929D
:1096B0009B1A00254FF6FF76A7F11E02591ACDE935
:1096C0000156DCF80030FFF723FC206829460CF037
:1096D000E7FF0DB0F0BD3C2805D8282805D8142890
:1096E00005D91348DCE71348DAE71348D8E7134BEA
:1096F000134A0A288CBF18461046D1E7C0780020CC
:1097000054600020686000206C7B0020B8070600D1
:10971000080A060058C50020C0070600487A002045
:1097200078070600D80606005C6000206060002014
:10973000180706005807060038070600F806060056
:10974000B8060600586000202DE9F04F5F4E604AD1
:10975000306803685B6C9342D3B040F0B3805C30F8
:1097600041F28832FF2131F001FD5A4B5A49D3E9C9
:10977000022300938B5C594A142104A832F0C8FBE1
:10978000574804A9FFF7CAFE564B93F80080B8F17A
:10979000000F00F093803068DFF85CB10268DBF8FE
:1097A0000030DFF85891504F00211024CDE90041DE
:1097B000183B156C1BB220220C21A84799F80030E9
:1097C000CDF8048008F10F0212110133009220211C
:1097D000464A09A832F09CFB2B22306821460CF047
:1097E0005BFF434930680CF065FF30684FF6FF714E
:1097F0000CF056FF306809A927F0ECFA3D4B1B68C6
:10980000543B87FB0327DB17C3EBA707B8F1000F17
:109810004FD099F800301D016C42A74249DD002D60
:1098200047D1DFF8CCA02A4609E099F80030A5EB33
:109830000314A7424FEA03123BDD002C39DB9542AB
:1098400003F1010332DBB5EB031F40F2011211A952
:10985000E8B22BDA04EB84040BF0A8F9620030685C
:1098600093B21A460A244FF6FF7301680392CDE9BA
:109870000043DBF800403232A4F118031BB20C6C39
:1098800012B20C21A047039A30683A3212B210216A
:109890000CF002FF306851460CF00CFF30680021DC
:1098A0000CF0FEFE306811A927F094FA0135A845A6
:1098B000BBD1FFF78DFE53B0BDE8F08F0BF06AF916
:1098C000804668E74FF6FF7198474EE7C078002062
:1098D00079820200B060002094600020CC0706006E
:1098E00058FB05000969002067666666DC0706000C
:1098F000080A060054600020686000200A69002001
:109900002DE9F04F9FB0FFF7FFFDB04B08901B789B
:10991000002B00F0C583AE4AAE49AF4B92ED006A12
:10992000D1ED006A93ED007ADFEDAC5AAC4B0793B2
:1099300036EEC65A37EE467A16EE900AC5EE077A2C
:109940001C46DFF8D4A2DFF8D4B267EEA57AFDEEAC
:10995000E77AC3ED0A7A30F005FEA24ACDE90001AC
:1099600004F12C00102132F0D3FA089B002B00F0F8
:10997000A483DAF8006041F2E432002341F2F231CC
:10998000B35441F2F6327350C823B352356872892A
:1099900041F2F833F2526B6C934A934240F0F583F4
:1099A00041F28832FF2106F15C0031F0DFFB3446E2
:1099B00041F2E53241F2EC3100237352B3546B6C47
:1099C000894A934240F04E8241F28832FF2104F1ED
:1099D0005C0031F0CBFB6B6C834A934240F04E82CB
:1099E00004F15C0041F28832FF2131F0BFFB7F4A75
:1099F0007F49D2E902320AA8CB5C009214217D4A49
:109A000032F086FA7C480AA9FFF788FDDAF80000F0
:109A1000DBF80030026812214FF6FF76CDE9001620
:109A2000183B1BB2146C0C212022A0477349DAF8B2
:109A300000000CF03FFEDAF800002C2210210CF0A0
:109A40002BFEDAF8000000210CF02AFE079B93F8A9
:109A50002C30002B00F0B1822D2B00F0AE825D4B3C
:109A6000186830F07FFD664ACDE9000114210FA887
:109A700032F04EFA0FA9DAF8000027F0ABF9079E92
:109A80005E49B36ADAF80000002B40F37E820CF0E6
:109A900011FE3E22DAF800000C210CF0FDFDDAF890
:109AA000000000210CF0FCFD5649DAF8000027F018
:109AB00091F9DAF80000DBF8003002680021082490
:109AC000CDE90041203B156C1BB246221021A8476E
:109AD000DBF80010B36AA1F1280203FB02F2632A4B
:109AE000354615DD484880FB0260D2172739C2EBA6
:109AF00060128A420CDADAF800004FF6FF73016850
:109B0000CDE9004313B20C6C46221021A047AB6A8A
:109B10003E4A14AE0A21304632F0FAF9304632F0AD
:109B20008AFADBF80030203B03EBD3735B10103371
:109B30000146A3EB81014C22DAF8000009B20CF0D7
:109B4000ABFD4FF06A09DAF80000314627F042F920
:109B50004C4664255A22079EDAF8000096F8B46055
:109B6000069600270E260168DBF80030CDE9006775
:109B7000183B1BB20E6C0C21B0472049DAF80000EC
:109B80000CF098FD2A46DAF8000010210CF084FD54
:109B9000DAF800004FF6FF710CF082FD1C49DAF88C
:109BA000000027F017F91B4B1B681B1BA32B40F36E
:109BB0000B82069E002E00F0F2820A25DFF820803C
:109BC00009954F46002414AE2DE000BFA8C3002025
:109BD0007C6000206C7B0020746000200000C84284
:109BE000C8780020B807060079820200B060002023
:109BF00094600020CC07060060F80500080A060003
:109C0000F0070600080806001F85EB51140806003F
:109C10002C08060054600020C078002068600020F6
:109C2000099B9C425EDADAF80000DBF8003002683B
:109C30000C214FF6FF75CDE90015126C183B1BB2D5
:109C400015463AB2A847D8F8440030F08BFC0B46D2
:109C50000246D8F84010D8F83C000291CDE9042320
:109C600030F080FCA24ACDE900012821304632F0D4
:109C70004FF907F1090212B2DAF8000010210CF0D6
:109C80000BFDDAF8000000210CF00AFDDAF8000004
:109C9000314627F09FF80134069AE3B20C379A4216
:109CA000BFB208F10C08BBD8099DAC421ADA04EB2C
:109CB000440609EB8606B6B20C27DAF80000DBF89A
:109CC000003002684FF6FF71CDE90071183BD2F801
:109CD00040801BB232B20C210134C0470C36AC427A
:109CE000B6B2EADBFFF774FC41F2EE36DAF8004078
:109CF00034F806C0BCF1010F00F0FE8041F2F033F1
:109D000041F2EC3534F803E0675F41F2E433B8B276
:109D1000E15C10FB0EF39BB200295DD00CF1FF3229
:109D200012B2974241F2F43841F2F837B8BF9E447C
:109D300034F80890A8BFB4F80AE0E15BB8BF1FFA96
:109D40008EFECE4449448AB21FFA8EFE72454B44C1
:109D50009BB228BF724693421ED241F2E531D21A1D
:109D6000605C41F2F23E11B2002840F0678134F9A4
:109D70000E200290CDE9030041F2F63C019134F946
:109D80000C10009104F120001BB204F15C010DF0F5
:109D9000C1FB34F806C0605B013000B20FFA8CFCE6
:109DA000604560536FD141F2E5360022A35D6253F6
:109DB000002B00F05A81089BDAF80000002B00F01D
:109DC000DD802030002106900EF0F2FA06980DF0AA
:109DD00053F91FB0BDE8F08F41F2E53814F80820C0
:109DE000002A67D1CDE9032202926189C91A89B29A
:109DF0008E4528BF8E460FFA8EF14FF0C80C04F145
:109E00005C0704F1200001911BB23946CDF800C077
:109E100006900DF099FB0698635BA25F01331BB2BD
:109E20009A4263533CD114F808100023635300296D
:109E300040F001810EF0BCFA236801225B6C04F84B
:109E400008202C4A934230D1384641F28832FF2113
:109E500031F08CF9DAF80040264A25686B6C9342A1
:109E60003FF4B2AD20464FF6FF719847DAF8004054
:109E7000204A25686B6C93423FF4B2AD20464FF602
:109E8000FF719847B3E523681A4A5B6C93420CD183
:109E900004F15C0041F28832FF2131F067F9D9E723
:109EA0002368144A5B6C9342CED020464FF6FF7174
:109EB0009847CFE7CDE9031102916289D21A92B295
:109EC000964528BF96460FFA8EFE4FF0C80C04F157
:109ED0005C0704F120000A46CDF804E01BB23946C5
:109EE000CDF800C006900DF02FFB069894E700BF58
:109EF0003C0806007982020041F2E433E55C002D63
:109F000072D041F2F43941F2F238002534F90930C7
:109F100034F908200295CDE9035541F2F83741F2B2
:109F2000F636E15F0191A15F009104F15C0B04F151
:109F30002000594606900DF0EDFA34F907C0A35FF2
:109F400034F9092034F908100698CDF800C00EF055
:109F5000A3F934F9093034F908200295CDE9035505
:109F6000E15F0191A15F0698009159460DF0ECFA6E
:109F7000089BDAF80000002B7FF423AF012120308A
:109F80000EF016FA1FB0BDE8F08F0CF093FB3E22E6
:109F9000DAF800000C210CF07FFBDAF80000002159
:109FA0000CF07EFB4FF05C099449DAF8000026F0D3
:109FB00011FF4C4656254C22CDE5914B93E8070006
:109FC0000FAB83E8070055E58E4AA3F1200582FB1D
:109FD0000512ED17C5EB6205069A002A00F0DD8038
:109FE0002B2B3FF7EBAD7DE6CDE903550295B4F998
:109FF0000A30019304F15C06C82704F120002B46C7
:10A000002A463146009706900DF09EFA069829469A
:10A010000EF0CEF9CDE903550295B4F90A30069851
:10A02000CDE9007331462B462A460DF08DFA06988D
:10A030000DF022F8BFE60DF01FF8BCE6002034F961
:10A040000E200290CDE9030041F2F63C019134F973
:10A050000C10009104F120001BB204F15C010DF022
:10A0600073FA34F806C0605B96E641F2F63341F2CB
:10A07000F231E05F34F90820E35E615E009004F1A4
:10A0800020000EF009F9236801225B6CA2555E4A9C
:10A0900093423FF4FDAE20464FF6FF719847D9E654
:10A0A0005A495B4A8B62089BDFF868A1DFF868B108
:10A0B0000791CA62002B7FF45CACDAF80040BBF871
:10A0C000007041F2F23520460CF006FB089B63530A
:10A0D00020460CF005FB80B20C2841F2F43628BF74
:10A0E0000C20A05320460CF0F7FA635BC01A80B234
:10A0F000B84241F2F63828BF384624F80800204616
:10A100000CF0EEFAA35BC01A80B2B82841F2F8371F
:10A1100028BFB820E05320460CF0CAFA02285AD0D3
:10A1200003284CD001283DD034F80810635B03F0BD
:10A1300007020A4491B2570716BF21F0070141F206
:10A14000F63241F2F63241F2E43018BF083101250F
:10A150002554A15241F2E73241F2F231A25C23F0E0
:10A16000070363524AB141F2F83341F2F432E05A44
:10A170006389A15A1B1A5B1AA352DAF80060224ABB
:10A1800035686B6C93423FF40BAC4FF6FF71304671
:10A190009847DAF8004025680AE4144685E5344615
:10A1A0000A2584E5A25B2389E15B34F80800E053CB
:10A1B0009B1A5B1A625BA2539BB26353B7E7615B66
:10A1C000628934F80800A35B6353521A121AA2532F
:10A1D000E15BE053ABE7238934F805E034F808107D
:10A1E000628934F806C0E05BA3EB0E03A2EB0C021D
:10A1F0005B1A121A9BB2A253635398E71C0806001D
:10A20000FC070600ABAAAA2A79820200C8780020BF
:10A210002D2D2D00C0780020686000202DE9F04F22
:10A2200091B0FFF771F9A64BA64D0790089300284F
:10A2300000F049822E68A44FD6F8008041F2E43243
:10A24000002341F2F231B35441F2F6327350C82385
:10A25000B35241F2F8337289F252D8F84430BB421B
:10A2600040F0998241F28832FF2106F15C0030F023
:10A270007DFF344641F2EC320023B35241F2E53225
:10A28000DFF860B2B3544646736CBB4240F00981BC
:10A2900041F28832FF2104F15C0030F067FF736CFB
:10A2A000BB4240F0088104F15C0041F28832FF219A
:10A2B00030F05CFFDBE9023284490BA8CB5C0092F2
:10A2C0001421834A31F024FE82480BA9FFF726F9B6
:10A2D0002868089B02681B6850214FF6FF74CDE97F
:10A2E0000014183B146C1BB220220C21A0477A4B9F
:10A2F00093F8B540002C00F04E812E2228681021E2
:10A300000CF0CAF9754928680CF0D4F928680021C6
:10A310000CF0C6F97249286826F05CFDFFF758F981
:10A3200041F2EE392C6834F809C0BCF1010F00F09D
:10A33000DB8041F2F03341F2EC3634F803E034F9DB
:10A34000068041F2E4331FFA88F0E15C10FB0EF363
:10A350009BB200295ED00CF1FF3212B2904541F25F
:10A36000F43A41F2F83834F80A20A8BFB4F80AE009
:10A3700034F80810BCBF9E441FFA8EFE9644114468
:10A380001FFA8EFE13448AB272459BB228BF7246F2
:10A3900093421ED241F2E531D21A605C41F2F23EA4
:10A3A00011B2002840F05C8134F90E200290CDE912
:10A3B000030041F2F63C019134F90C10009104F1D4
:10A3C00020001BB204F15C010DF0A4F834F809C0C0
:10A3D000A05B013000B20FFA8CFC6045A05340F046
:10A3E000CE8041F2E539002214F80930A253002B47
:10A3F00000F04D81079B2868002B00F0B9802030C9
:10A40000002107900DF0D4FF07980CF035FE11B035
:10A41000BDE8F08F41F2E53A14F80A20002A40F036
:10A42000D680CDE9032202926189C91A89B28E458C
:10A4300028BF8E460FFA8EF14FF0C80C04F15C086D
:10A4400004F1200001911BB24146CDF800C00990F3
:10A450000DF07AF80998A35B34F9092001331BB297
:10A460009A42A35340F0A98014F80A100023A35382
:10A47000002940F0F2800DF09BFF23685B6C012205
:10A48000BB4204F80A2040F09D80404641F28832E9
:10A49000FF2130F06BFE2C682668736CBB423FF4E2
:10A4A000F7AE20464FF6FF7198472C682668736C0C
:10A4B000BB423FF4F8AE20464FF6FF719847F9E6ED
:10A4C00068600020C078002079820200946000203B
:10A4D000CC0706004CF80500C8780020080A0600E2
:10A4E0007D790020B060002041F2E433E65C002E6C
:10A4F00000F08A8041F2F43A41F2F239002634F950
:10A500000A3034F909200296CDE9036641F2F838A1
:10A5100041F2F63734F908100191E15F009104F13E
:10A520005C0B04F12000594608900CF0F3FF34F95D
:10A5300008C0E35F34F90A2034F909100898CDF80F
:10A5400000C00DF0A9FE34F90A3034F90920029652
:10A55000CDE9036634F908100191E15F0898009194
:10A5600059460CF0F1FF079B2868002B7FF447AF9A
:10A57000012120300DF01CFF11B0BDE8F08F2368E1
:10A580005B6CBB421ED104F15C0041F28832FF21BA
:10A5900030F0ECFD7FE728689B490CF08BF82868C9
:10A5A0002E220C210CF078F8286821460CF078F85F
:10A5B0009649286826F00EFCB0E623685B6CBB4227
:10A5C0003FF463AF20464FF6FF71984763E7CDE94C
:10A5D000031102916289D21A92B2964528BF96461B
:10A5E0000FFA8EFE4FF0C80C04F15C0804F1200055
:10A5F0000A46CDF804E01BB24146CDF800C00990F0
:10A600000CF0A2FF099826E7CDE903660296B4F99B
:10A610000A30019304F15C074FF0C80804F12000F0
:10A62000334632463946CDF8008008900CF08CFF56
:10A63000089831460DF0BCFECDE903660296B4F9E8
:10A640000A300898CDE900833946334632460CF08B
:10A650007BFF08980CF010FDCCE60CF00DFDC9E670
:10A66000002034F90E200290CDE9030041F2F63CBF
:10A67000019134F90C10009104F120001BB204F197
:10A680005C010CF061FF34F809C0A05BA1E641F267
:10A69000F63341F2F23134F9080034F90A20E35E6E
:10A6A000615E009004F120000DF0F6FD23685B6C04
:10A6B0000122BB4204F809203FF465AF20464FF663
:10A6C000FF719847E7E62C68B3F8009041F2F23644
:10A6D00020460CF001F8079BA35320460CF000F82D
:10A6E00080B20C2841F2F43728BF0C20E0532046FA
:10A6F0000BF0F2FFA35BC01A80B2484541F2F63876
:10A7000028BF484624F8080020460BF0E9FFE35B29
:10A71000C01A80B2B82841F2F83928BFB82024F80E
:10A72000090020460BF0C4FF022859D0032849D065
:10A73000012838D034F80810A35B03F0070241F277
:10A74000E4300A44012691B22654560717BF21F07F
:10A75000070141F2F63241F2F6320831A15241F2DC
:10A76000E73241F2F231A25C23F0070363524AB1AF
:10A7700041F2F83341F2F432E05A6389A15A1B1ACC
:10A780005B1AA3522E68224FD6F80080D8F84430C6
:10A79000BB423FF467AD4FF6FF71304698472C68D7
:10A7A000D4F8008066E5E25B238934F8091034F8B8
:10A7B000080024F809009B1A5B1AA25BE2539BB2C3
:10A7C000A353BAE7A15B628934F80800E35BA353A3
:10A7D000521A121AE25334F8091024F80900ACE7AF
:10A7E000238934F806E034F80810628934F807C089
:10A7F00034F80900A3EB0E03A2EB0C025B1A121A49
:10A800009BB2E253A35398E7080A060050080600DB
:10A81000798202002DE9F04F9DB0FEF775FEC84D1C
:10A82000DFF844B30690002800F08F82D5F800804E
:10A83000C44FD8F8006041F2E432002341F2F23113
:10A8400008F8023041F2F63248F80130C82328F8FF
:10A85000023041F2F833B8F80A2028F80320736C6C
:10A86000BB4240F0DB8241F28832FF2108F15C00FC
:10A8700030F07CFC444641F2EC3141F2E5320023F9
:10A8800028F8013008F80230736CBB4240F0368182
:10A8900041F28832FF2104F15C0030F067FC736CF8
:10A8A000BB4240F0358104F15C0041F28832FF2167
:10A8B00030F05CFCA44AA549D2E9023208A8CB5C7E
:10A8C00000921421A24A31F023FBA24808A9FEF706
:10A8D00025FE2868DBF80030026850214FF6FF762D
:10A8E000CDE90016183B146C1BB220220C21A047A6
:10A8F000994B1878002800F071810346974A3C2153
:10A900000DA831F005FB2E22286810210BF0C4FEA3
:10A91000934928680BF0CEFE286800210BF0C0FE9A
:10A9200028680DA926F056FA8B4B1C78002C00F0F5
:10A930001D810AF02FF90446002800F0EE8001384E
:10A940003C220DA9C0B20AF031F92868DBF80030CA
:10A9500002680E214FF6FF74CDE90014183B146C09
:10A960001BB238220C21A0472868102142220BF08C
:10A9700093FE28680DA926F02DFAFEF729FE41F274
:10A98000EE382C6834F808C0BCF1010F00F02981C2
:10A9900041F2F03341F2EC3634F803E034F906903A
:10A9A00041F2E4331FFA89F0E15C10FB0EF39BB235
:10A9B00000295ED00CF1FF3212B2914541F2F43A17
:10A9C00041F2F83934F80A20A8BFB4F80AE034F8A4
:10A9D0000910BCBF9E441FFA8EFE964411441FFA14
:10A9E0008EFE13448AB272459BB228BF72469342D0
:10A9F0001ED241F2E531D21A605C41F2F23E11B250
:10AA0000002840F0708134F90E200290CDE9030057
:10AA100041F2F63C019134F90C10009104F1200050
:10AA20001BB204F15C010CF075FD34F808C0A05BAA
:10AA3000013000B20FFA8CFC6045A05340F01B813E
:10AA400041F2E538002214F80830A253002B00F040
:10AA50006181069B2868002B00F0068120300021D0
:10AA600006900DF0A5FC06980CF006FB1DB0BDE8A5
:10AA7000F08F41F2E53A14F80A20002A40F0918064
:10AA8000CDE9032202926189C91A89B28E4528BF95
:10AA90008E460FFA8EF14FF0C80C04F15C0904F1F8
:10AAA000200001911BB24946CDF800C007900CF080
:10AAB0004BFD0798A35B34F9082001331BB29A427F
:10AAC000A35365D114F80A100023A353002940F0C2
:10AAD00007810DF06DFC23685B6C0122BB4204F81A
:10AAE0000A2059D1484641F28832FF2130F03EFB1E
:10AAF0002C682668736CBB423FF4CAAE20464FF602
:10AB0000FF7198472C682668736CBB423FF4CBAE4C
:10AB100020464FF6FF719847CCE6286810490BF0A5
:10AB2000C9FD286842220C210BF0B6FD2868214699
:10AB30000BF0B6FD0B49286826F04CF91DE700BF65
:10AB4000C078002079820200B0600020946000206C
:10AB5000CC07060058FB05000969002054080600D0
:10AB6000080A060060080600686000202868BD49E1
:10AB70000BF0A0FD286842220C210BF08DFD286807
:10AB800021460BF08DFDB849286826F023F9F4E63C
:10AB900023685B6CBB42A5D020464FF6FF719847F7
:10ABA000A6E7CDE9031102916289D21A92B29645C5
:10ABB00028BF96460FFA8EFE4FF0C80C04F15C09D0
:10ABC00004F120000A46CDF804E01BB24946CDF856
:10ABD00000C007900CF0B8FC07986BE709F0DAFFAB
:10ABE0008BE641F2E433E65C002E50D041F2F43AB9
:10ABF00041F2F239002634F90A3034F9092002967C
:10AC0000CDE9036641F2F83841F2F63734F908101D
:10AC10000191E15F009104F15C0B04F120005946C1
:10AC200007900CF077FC34F908C0E35F34F90A2090
:10AC300034F909100798CDF800C00DF02DFB34F958
:10AC40000A3034F909200296CDE9036634F9081078
:10AC50000191E15F0798009159460CF075FC069B45
:10AC60002868002B7FF4FAAE012120300DF0A0FB04
:10AC70001DB0BDE8F08F23685B6CBB428CD104F142
:10AC80005C0041F28832FF2130F070FA30E7CDE904
:10AC900003660296B4F90A30019304F15C074FF0A1
:10ACA000C80804F12000334632463946CDF800800A
:10ACB00007900CF049FC079831460DF079FBCDE97F
:10ACC00003660296B4F90A300798CDE90083394645
:10ACD000334632460CF038FC07980CF0CDF9B8E654
:10ACE0000CF0CAF9B5E6002034F90E200290CDE947
:10ACF000030041F2F63C019134F90C10009104F18B
:10AD000020001BB204F15C010CF01EFC34F808C0FA
:10AD1000A05B8DE641F2F63341F2F23134F90900DD
:10AD200034F90A20E35E615E009004F120000DF02A
:10AD3000B3FA23685B6C0122BB4204F808209ED062
:10AD400020464FF6FF719847D2E62C68BBF800907A
:10AD500041F2F23620460BF0BFFC069BA35320467F
:10AD60000BF0BEFC80B20C2841F2F43728BF0C2057
:10AD7000E05320460BF0B0FCA35BC01A80B24845FC
:10AD800041F2F63828BF484624F8080020460BF068
:10AD9000A7FCE35BC01A80B2B82841F2F83928BF9B
:10ADA000B82024F8090020460BF082FC02285FD06E
:10ADB000032849D0012838D034F80810A35B03F0E9
:10ADC00007020A4491B2570716BF21F0070141F26A
:10ADD000F63241F2F63241F2E43018BF0831012672
:10ADE0002654A15241F2E73241F2F231A25C23F043
:10ADF000070363524AB141F2F83341F2F432E05AA8
:10AE00006389A15A1B1A5B1AA352D5F80080174F09
:10AE1000D8F80060736CBB423FF425AD4FF6FF716C
:10AE2000404698472C68266825E5E25B238934F87C
:10AE3000091034F8080024F809009B1A5B1AA25B79
:10AE4000E2539BB2A353BAE7A15B628934F80800CE
:10AE5000E35BA353521A121AE25334F8091024F890
:10AE60000900ACE7080A06006C08060079820200B7
:10AE7000238934F806E034F80810628934F807C0F2
:10AE800034F80900A3EB0E03A2EB0C025B1A121AB2
:10AE90009BB2E253A35392E72DE9F04F89B0FEF73E
:10AEA00033FBB94E0690002800F0D0813468B74FCC
:10AEB000256841F2E432002341F2F231A35441F219
:10AEC000F6326350C821A15241F2F8336289E2524E
:10AED0006B6CBB4240F0228241F28832FF2104F1C8
:10AEE0005C0030F043F9204641F2EC3141F2E532AA
:10AEF00000236352A3546B6CBB4240F0C7805C30AC
:10AF000041F28832FF2130F031F9FEF71DFC41F2A9
:10AF1000EE38346834F808C0BCF1010F00F0DD8071
:10AF200041F2F03341F2EC35E15A34F905E041F2F7
:10AF3000E4331FFA8EF0E25C10FB01F39BB2002AAF
:10AF40005ED00CF1FF3212B2964541F2F43A41F272
:10AF5000F839B8BFC91834F80AB0ACBFB4F80AE081
:10AF60001FFA81FE34F80910DE4459448AB21FFAF0
:10AF70008EFE72455B449BB228BF724693421ED23E
:10AF800041F2E531D21A605C41F2F23E11B2002882
:10AF900040F0278134F90E200290CDE9030041F200
:10AFA000F63C019134F90C10009104F120001BB221
:10AFB00004F15C010CF0AEFA34F808C0605B0130BB
:10AFC00000B20FFA8CFC6045605340F0D08041F233
:10AFD000E538002214F808306253002B00F01B8182
:10AFE000069B3068002B00F0BB80203000210690CB
:10AFF0000DF0DEF9069809B0BDE8F04F0CF03CB852
:10B0000041F2E53914F809E0BEF1000F4BD1CDE96A
:10B0100003EECDF808E06289D21A92B2914228BFBD
:10B02000114609B24FF0C80C04F15C0A04F120008B
:10B03000019172461BB25146CDF800C007900CF04A
:10B0400083FA0798635B34F9082001331BB29A42F4
:10B0500063531FD114F8091000236353002940F0F3
:10B06000D7800DF0A5F923685B6C0122BB4204F880
:10B07000092013D1504641F28832FF2130F076F892
:10B08000306805686B6CBB423FF439AF4FF6FF7117
:10B0900098473AE723685B6CBB42EBD020464FF6FB
:10B0A000FF719847ECE7CDE9032202926089C01A4C
:10B0B00080B2814228BF014609B24FF0C80C04F1AA
:10B0C0005C0A04F1200001911BB25146CDF800C08A
:10B0D00007900CF039FA0798B4E741F2E433E55CE5
:10B0E000002D55D041F2F43A41F2F239002534F9FD
:10B0F0000A3034F909200295CDE9035541F2F838B8
:10B1000041F2F63734F908100191E15F009104F142
:10B110005C0B04F12000594607900CF0FBF934F960
:10B1200008C0E35F34F90A2034F909100798CDF814
:10B1300000C00DF0B1F834F90A3034F90920029555
:10B14000CDE9035534F908100191E15F07980091AA
:10B1500059460CF0F9F9069B3068002B7FF445AF97
:10B160000121203009B0BDE8F04F0DF021B923686E
:10B170005B6CBB4292D104F15C0041F28832FF214A
:10B180002FF0F4FF7CE700BFC07800207982020036
:10B19000CDE903550295B4F90A30019304F15C0737
:10B1A0004FF0C80804F120002B462A463946CDF856
:10B1B000008007900CF0C8F9079829460DF0F8F8C0
:10B1C000CDE903550295B4F90A300798CDE900831B
:10B1D00039462B462A460CF0B7F907980BF04CFF7E
:10B1E000FEE6002034F90E200290CDE9030041F282
:10B1F000F63C019134F90C10009104F120001BB2CF
:10B2000004F15C010CF0A0F934F808C0605BD6E6EC
:10B210000BF032FFE4E641F2F63341F2F23134F959
:10B22000090034F90A20E35E615E009004F1200019
:10B230000DF032F823685B6C0122BB4204F8082051
:10B2400099D020464FF6FF71984719E734684F4B65
:10B2500041F2F2352046B3F800900BF03DFA069B20
:10B26000635320460BF03CFA80B20C2841F2F437CD
:10B2700028BF0C20E05320460BF02EFA635BC01A67
:10B2800080B2484541F2F63828BF484624F8080005
:10B2900020460BF025FAE35BC01A80B2B82841F2D1
:10B2A000F83928BFB82024F8090020460BF000FA2E
:10B2B000022857D0032847D0012836D034F8081088
:10B2C000635B03F007020A4491B2520716BF21F0F4
:10B2D000070141F2F63241F2F63241F2E43018BF92
:10B2E000083101252554A15241F2E73241F2F231F1
:10B2F000A25C23F0070363524AB141F2F83341F2F2
:10B30000F432E05A6389A15A1B1A5B1AA3523468BB
:10B310001F4F25686B6CBB423FF4DEAD20464FF6F5
:10B32000FF71984730680568DEE5E25B238934F8F1
:10B33000091034F8080024F809009B1A5B1A625BB4
:10B34000E2539BB26353BCE7615B628934F8080047
:10B35000E35B6353521A121AE25334F8091024F8CB
:10B360000900AEE7238934F805E034F80810628953
:10B3700034F807C034F80900A3EB0E03A2EB0C026B
:10B380005B1A121A9BB2E25363539AE7686000207B
:10B39000798202002DE9F04F9BB0FEF7B5F8BC4B67
:10B3A000BC4D07900893002800F050822E68BA4FD9
:10B3B000D6F8008041F2E432002341F2F231B35476
:10B3C00041F2F6327350C823B35241F2F833728916
:10B3D000F252D8F84430BB4240F0A08241F28832A9
:10B3E000FF2106F15C002FF0C1FE344641F2EC3142
:10B3F00041F2E53200237352B3544646DFF8BCB243
:10B40000736CBB4240F01F8141F28832FF2104F18E
:10B410005C002FF0ABFE736CBB4240F01E8104F168
:10B420005C0041F28832FF212FF0A0FEDBE90232FE
:10B430009A490BA8CB5C00921421994A30F068FD20
:10B4400098480BA9FEF76AF82868089B02681B68F1
:10B4500050214FF6FF74CDE90014183B146C1BB259
:10B4600020220C21A0479049904B0C681B68904A01
:10B47000282110A830F04CFD2E22286810210BF056
:10B480000BF98C4928680BF015F9286800210BF09E
:10B4900007F910A9286825F09DFC2346864A282133
:10B4A00010A830F035FD4222286810210BF0F4F886
:10B4B000804928680BF0FEF8286800210BF0F0F8AE
:10B4C00010A9286825F086FC41F2EE39FEF780F8D5
:10B4D0002C6834F809C0BCF1010F00F00E8141F274
:10B4E000F03341F2EC3634F803E034F9068041F2EF
:10B4F000E4331FFA88F0E15C10FB0EF39BB20029E5
:10B500005DD00CF1FF3212B2904541F2F43A41F2B3
:10B51000F83834F80A20A8BFB4F80AE034F8081064
:10B52000BCBF9E441FFA8EFE964411441FFA8EFE45
:10B5300013448AB272459BB228BF724693421ED210
:10B5400041F2E531D21A605C41F2F23E11B20028BC
:10B5500040F0468134F90E200290CDE9030041F21B
:10B56000F63C019134F90C10009104F120001BB25B
:10B5700004F15C010BF0CEFF34F809C0A05B013090
:10B5800000B20FFA8CFC6045A0536BD141F2E53953
:10B59000002214F80930A253002B00F03B81079BD6
:10B5A0002868002B00F0EC802030002107900CF080
:10B5B000FFFE07980BF060FD1BB0BDE8F08F41F275
:10B5C000E53A14F80A20002A7AD1CDE90322029242
:10B5D0006189C91A89B28E4528BF8E460FFA8EF14D
:10B5E0004FF0C80C04F15C0804F1200001911BB27B
:10B5F0004146CDF800C009900BF0A6FF0998A35B67
:10B6000034F9092001331BB29A42A35336D114F8FE
:10B610000A100023A353002940F0F9800CF0C8FE63
:10B6200023685B6C0122BB4204F80A202AD1404601
:10B6300041F28832FF212FF099FD2C682668736C47
:10B64000BB423FF4E1AE20464FF6FF7198472C68AD
:10B650002668736CBB423FF4E2AE20464FF6FF71A2
:10B660009847E3E623685B6CBB420BD104F15C00B6
:10B6700041F28832FF212FF079FDDEE723685B6C11
:10B68000BB42D4D020464FF6FF719847D5E700BFA4
:10B6900068600020C0780020798202009460002059
:10B6A000CC07060048F80500B0680020F4680020C8
:10B6B0007C080600080A060088080600B060002022
:10B6C000CDE9031102916289D21A92B2964528BF40
:10B6D00096460FFA8EFE4FF0C80C04F15C0804F198
:10B6E00020000A46CDF804E01BB24146CDF800C068
:10B6F00009900BF029FF099881E741F2E433E65CF9
:10B70000002E44D041F2F43A41F2F239002634F9E5
:10B710000A3034F909200296CDE9036641F2F8387F
:10B7200041F2F63734F908100191E15F009104F11C
:10B730005C0B04F12000594608900BF0EBFE34F945
:10B7400008C0E35F34F90A2034F909100898CDF8ED
:10B7500000C00CF0A1FD34F90A3034F9092002963A
:10B76000CDE9036634F908100191E15F0898009172
:10B7700059460BF0E9FE079B2868002B7FF414AFB5
:10B78000012120300CF014FE1BB0BDE8F08FCDE994
:10B7900003660296B4F90A30019304F15C074FF096
:10B7A000C80804F12000334632463946CDF80080FF
:10B7B00008900BF0C9FE089831460CF0F9FDCDE970
:10B7C00003660296B4F90A300898CDE90083394639
:10B7D000334632460BF0B8FE08980BF04DFCDEE61F
:10B7E000002034F90E200290CDE9030041F2F63C2E
:10B7F000019134F90C10009104F120001BB204F106
:10B800005C010BF0A1FE34F809C0A05BB7E60BF0B9
:10B8100033FCC4E641F2F63341F2F23134F9080068
:10B8200034F90A20E35E615E009004F120000CF020
:10B8300033FD23685B6C0122BB4204F809203FF40E
:10B8400015AF20464FF6FF719847F6E62C68B3F81F
:10B85000009041F2F23620460AF03EFF079BA353C8
:10B8600020460AF03DFF80B20C2841F2F43728BF91
:10B870000C20E05320460AF02FFFA35BC01A80B2D1
:10B88000484541F2F63828BF484624F808002046CB
:10B890000AF026FFE35BC01A80B2B82841F2F839FB
:10B8A00028BFB82024F8090020460AF001FF02282A
:10B8B00059D0032849D0012838D034F80810A35BA8
:10B8C00003F0070241F2E4300A44012691B2265403
:10B8D000560717BF21F0070141F2F63241F2F63266
:10B8E0000831A15241F2E73241F2F231A25C23F079
:10B8F000070363524AB141F2F83341F2F432E05A9D
:10B900006389A15A1B1A5B1AA3522E68204FD6F8DE
:10B910000080D8F84430BB423FF460AD4FF6FF7171
:10B92000304698472C68D4F800805FE5E25B2389B5
:10B9300034F8091034F8080024F809009B1A5B1A3F
:10B94000A25BE2539BB2A353BAE7A15B628934F8CE
:10B950000800E35BA353521A121AE25334F8091099
:10B9600024F80900ACE7238934F806E034F808101D
:10B97000628934F807C034F80900A3EB0E03A2EB88
:10B980000C025B1A121A9BB2E253A35398E700BF52
:10B99000798202002DE9F04F8FB0FDF7B5FDDFF899
:10B9A00030830690002800F00282D8F80050C34E81
:10B9B0002C6841F2E432002341F2F231AB5441F2FF
:10B9C000F6326B50C821A95241F2F8336A89EA5223
:10B9D000636CB34240F0538241F28832FF2105F19B
:10B9E0005C002FF0C3FB284641F2EC320023AB523F
:10B9F00041F2E532DFF8DC92AB54636CB34240F0C5
:10BA0000DD805C3041F28832FF212FF0AFFBAC4B80
:10BA1000AC4A1B689342D9F8083000F05D81AA490E
:10BA2000D9F80C20CB5C00921421A84A09A830F068
:10BA30006FFAA34B09A91868FDF770FD41F2EE37C4
:10BA4000FDF7C6FDD8F8004034F807C0BCF1010F7F
:10BA500000F0EA8041F2F03341F2EC3534F803E0D3
:10BA600034F905A041F2E4331FFA8AF0E15C10FBDF
:10BA70000EF39BB200295DD00CF1FF3212B2924559
:10BA800041F2F43B41F2F83A34F80B20A8BFB4F885
:10BA90000AE034F80A10BCBF9E441FFA8EFE96449A
:10BAA00011441FFA8EFE13448AB272459BB228BF1E
:10BAB000724693421ED241F2E531D21A605C41F2E5
:10BAC000F23E11B2002840F03D8134F90E20029080
:10BAD000CDE9030041F2F63C019134F90C100091DC
